{
  "_format": "hh-sol-artifact-1",
  "contractName": "ResumeRegistry",
  "sourceName": "contracts/ResumeRegistry.sol",
  "abi": [
    {
      "anonymous": false,
      "inputs": [
        {
          "indexed": true,
          "internalType": "address",
          "name": "owner",
          "type": "address"
        },
        {
          "indexed": false,
          "internalType": "string",
          "name": "ipfsHash",
          "type": "string"
        },
        {
          "indexed": false,
          "internalType": "uint256",
          "name": "timestamp",
          "type": "uint256"
        }
      ],
      "name": "ResumeUploaded",
      "type": "event"
    },
    {
      "inputs": [
        {
          "internalType": "address",
          "name": "user",
          "type": "address"
        }
      ],
      "name": "getResumesByAddress",
      "outputs": [
        {
          "components": [
            {
              "internalType": "address",
              "name": "owner",
              "type": "address"
            },
            {
              "internalType": "string",
              "name": "ipfsHash",
              "type": "string"
            },
            {
              "internalType": "uint256",
              "name": "timestamp",
              "type": "uint256"
            }
          ],
          "internalType": "struct ResumeRegistry.Resume[]",
          "name": "",
          "type": "tuple[]"
        }
      ],
      "stateMutability": "view",
      "type": "function"
    },
    {
      "inputs": [
        {
          "internalType": "uint256",
          "name": "",
          "type": "uint256"
        }
      ],
      "name": "resumes",
      "outputs": [
        {
          "internalType": "address",
          "name": "owner",
          "type": "address"
        },
        {
          "internalType": "string",
          "name": "ipfsHash",
          "type": "string"
        },
        {
          "internalType": "uint256",
          "name": "timestamp",
          "type": "uint256"
        }
      ],
      "stateMutability": "view",
      "type": "function"
    },
    {
      "inputs": [],
      "name": "totalResumes",
      "outputs": [
        {
          "internalType": "uint256",
          "name": "",
          "type": "uint256"
        }
      ],
      "stateMutability": "view",
      "type": "function"
    },
    {
      "inputs": [
        {
          "internalType": "uint256",
          "name": "index",
          "type": "uint256"
        },
        {
          "internalType": "string",
          "name": "newIpfsHash",
          "type": "string"
        }
      ],
      "name": "updateResume",
      "outputs": [],
      "stateMutability": "nonpayable",
      "type": "function"
    },
    {
      "inputs": [
        {
          "internalType": "string",
          "name": "ipfsHash",
          "type": "string"
        }
      ],
      "name": "uploadResume",
      "outputs": [],
      "stateMutability": "nonpayable",
      "type": "function"
    }
  ],
  "bytecode": "0x608060405234801561001057600080fd5b50611288806100206000396000f3fe608060405234801561001057600080fd5b50600436106100575760003560e01c80631207a9221461005c5780632e3239611461007a578063d7334ef314610096578063efdc76a7146100c8578063f0b92069146100e4575b600080fd5b610064610114565b60405161007191906107b6565b60405180910390f35b610094600480360381019061008f9190610840565b610120565b005b6100b060048036038101906100ab91906108b9565b61033c565b6040516100bf939291906109b7565b60405180910390f35b6100e260048036038101906100dd91906109f5565b61041e565b005b6100fe60048036038101906100f99190610a81565b61053e565b60405161010b9190610c28565b60405180910390f35b60008080549050905090565b60008282905011610166576040517f08c379a000000000000000000000000000000000000000000000000000000000815260040161015d90610c96565b60405180910390fd5b600060405180606001604052803373ffffffffffffffffffffffffffffffffffffffff16815260200184848080601f016020809104026020016040519081016040528093929190818152602001838380828437600081840152601f19601f82011690508083019250505050505050815260200142815250908060018154018082558091505060019003906000526020600020906003020160009091909190915060008201518160000160006101000a81548173ffffffffffffffffffffffffffffffffffffffff021916908373ffffffffffffffffffffffffffffffffffffffff16021790555060208201518160010190816102629190610ef1565b50604082015181600201555050600160003373ffffffffffffffffffffffffffffffffffffffff1673ffffffffffffffffffffffffffffffffffffffff16815260200190815260200160002060016000805490506102c09190610ff2565b90806001815401808255809150506001900390600052602060002001600090919091909150553373ffffffffffffffffffffffffffffffffffffffff167fd0f7f3331311be6b42c9f49aa4e4c7c910658ce78847d18003318d5d7c4108e283834260405161033093929190611062565b60405180910390a25050565b6000818154811061034c57600080fd5b90600052602060002090600302016000915090508060000160009054906101000a900473ffffffffffffffffffffffffffffffffffffffff169080600101805461039590610d14565b80601f01602080910402602001604051908101604052809291908181526020018280546103c190610d14565b801561040e5780601f106103e35761010080835404028352916020019161040e565b820191906000526020600020905b8154815290600101906020018083116103f157829003601f168201915b5050505050908060020154905083565b600080848154811061043357610432611094565b5b906000526020600020906003020190503373ffffffffffffffffffffffffffffffffffffffff168160000160009054906101000a900473ffffffffffffffffffffffffffffffffffffffff1673ffffffffffffffffffffffffffffffffffffffff16146104d5576040517f08c379a00000000000000000000000000000000000000000000000000000000081526004016104cc9061110f565b60405180910390fd5b6000838390501161051b576040517f08c379a000000000000000000000000000000000000000000000000000000000815260040161051290610c96565b60405180910390fd5b828282600101918261052e92919061113a565b5042816002018190555050505050565b60606000600160008473ffffffffffffffffffffffffffffffffffffffff1673ffffffffffffffffffffffffffffffffffffffff16815260200190815260200160002090506000818054905067ffffffffffffffff8111156105a3576105a2610cb6565b5b6040519080825280602002602001820160405280156105dc57816020015b6105c9610766565b8152602001906001900390816105c15790505b50905060005b828054905081101561075b57600083828154811061060357610602611094565b5b90600052602060002001548154811061061f5761061e611094565b5b90600052602060002090600302016040518060600160405290816000820160009054906101000a900473ffffffffffffffffffffffffffffffffffffffff1673ffffffffffffffffffffffffffffffffffffffff1673ffffffffffffffffffffffffffffffffffffffff16815260200160018201805461069e90610d14565b80601f01602080910402602001604051908101604052809291908181526020018280546106ca90610d14565b80156107175780601f106106ec57610100808354040283529160200191610717565b820191906000526020600020905b8154815290600101906020018083116106fa57829003601f168201915b5050505050815260200160028201548152505082828151811061073d5761073c611094565b5b602002602001018190525080806107539061120a565b9150506105e2565b508092505050919050565b6040518060600160405280600073ffffffffffffffffffffffffffffffffffffffff16815260200160608152602001600081525090565b6000819050919050565b6107b08161079d565b82525050565b60006020820190506107cb60008301846107a7565b92915050565b600080fd5b600080fd5b600080fd5b600080fd5b600080fd5b60008083601f840112610800576107ff6107db565b5b8235905067ffffffffffffffff81111561081d5761081c6107e0565b5b602083019150836001820283011115610839576108386107e5565b5b9250929050565b60008060208385031215610857576108566107d1565b5b600083013567ffffffffffffffff811115610875576108746107d6565b5b610881858286016107ea565b92509250509250929050565b6108968161079d565b81146108a157600080fd5b50565b6000813590506108b38161088d565b92915050565b6000602082840312156108cf576108ce6107d1565b5b60006108dd848285016108a4565b91505092915050565b600073ffffffffffffffffffffffffffffffffffffffff82169050919050565b6000610911826108e6565b9050919050565b61092181610906565b82525050565b600081519050919050565b600082825260208201905092915050565b60005b83811015610961578082015181840152602081019050610946565b60008484015250505050565b6000601f19601f8301169050919050565b600061098982610927565b6109938185610932565b93506109a3818560208601610943565b6109ac8161096d565b840191505092915050565b60006060820190506109cc6000830186610918565b81810360208301526109de818561097e565b90506109ed60408301846107a7565b949350505050565b600080600060408486031215610a0e57610a0d6107d1565b5b6000610a1c868287016108a4565b935050602084013567ffffffffffffffff811115610a3d57610a3c6107d6565b5b610a49868287016107ea565b92509250509250925092565b610a5e81610906565b8114610a6957600080fd5b50565b600081359050610a7b81610a55565b92915050565b600060208284031215610a9757610a966107d1565b5b6000610aa584828501610a6c565b91505092915050565b600081519050919050565b600082825260208201905092915050565b6000819050602082019050919050565b610ae381610906565b82525050565b600082825260208201905092915050565b6000610b0582610927565b610b0f8185610ae9565b9350610b1f818560208601610943565b610b288161096d565b840191505092915050565b610b3c8161079d565b82525050565b6000606083016000830151610b5a6000860182610ada565b5060208301518482036020860152610b728282610afa565b9150506040830151610b876040860182610b33565b508091505092915050565b6000610b9e8383610b42565b905092915050565b6000602082019050919050565b6000610bbe82610aae565b610bc88185610ab9565b935083602082028501610bda85610aca565b8060005b85811015610c165784840389528151610bf78582610b92565b9450610c0283610ba6565b925060208a01995050600181019050610bde565b50829750879550505050505092915050565b60006020820190508181036000830152610c428184610bb3565b905092915050565b7f4950465320686173682063616e6e6f7420626520656d70747900000000000000600082015250565b6000610c80601983610932565b9150610c8b82610c4a565b602082019050919050565b60006020820190508181036000830152610caf81610c73565b9050919050565b7f4e487b7100000000000000000000000000000000000000000000000000000000600052604160045260246000fd5b7f4e487b7100000000000000000000000000000000000000000000000000000000600052602260045260246000fd5b60006002820490506001821680610d2c57607f821691505b602082108103610d3f57610d3e610ce5565b5b50919050565b60008190508160005260206000209050919050565b60006020601f8301049050919050565b600082821b905092915050565b600060088302610da77fffffffffffffffffffffffffffffffffffffffffffffffffffffffffffffffff82610d6a565b610db18683610d6a565b95508019841693508086168417925050509392505050565b6000819050919050565b6000610dee610de9610de48461079d565b610dc9565b61079d565b9050919050565b6000819050919050565b610e0883610dd3565b610e1c610e1482610df5565b848454610d77565b825550505050565b600090565b610e31610e24565b610e3c818484610dff565b505050565b5b81811015610e6057610e55600082610e29565b600181019050610e42565b5050565b601f821115610ea557610e7681610d45565b610e7f84610d5a565b81016020851015610e8e578190505b610ea2610e9a85610d5a565b830182610e41565b50505b505050565b600082821c905092915050565b6000610ec860001984600802610eaa565b1980831691505092915050565b6000610ee18383610eb7565b9150826002028217905092915050565b610efa82610927565b67ffffffffffffffff811115610f1357610f12610cb6565b5b610f1d8254610d14565b610f28828285610e64565b600060209050601f831160018114610f5b5760008415610f49578287015190505b610f538582610ed5565b865550610fbb565b601f198416610f6986610d45565b60005b82811015610f9157848901518255600182019150602085019450602081019050610f6c565b86831015610fae5784890151610faa601f891682610eb7565b8355505b6001600288020188555050505b505050505050565b7f4e487b7100000000000000000000000000000000000000000000000000000000600052601160045260246000fd5b6000610ffd8261079d565b91506110088361079d565b92508282039050818111156110205761101f610fc3565b5b92915050565b82818337600083830152505050565b60006110418385610932565b935061104e838584611026565b6110578361096d565b840190509392505050565b6000604082019050818103600083015261107d818587611035565b905061108c60208301846107a7565b949350505050565b7f4e487b7100000000000000000000000000000000000000000000000000000000600052603260045260246000fd5b7f4e6f7420746865206f776e657200000000000000000000000000000000000000600082015250565b60006110f9600d83610932565b9150611104826110c3565b602082019050919050565b60006020820190508181036000830152611128816110ec565b9050919050565b600082905092915050565b611144838361112f565b67ffffffffffffffff81111561115d5761115c610cb6565b5b6111678254610d14565b611172828285610e64565b6000601f8311600181146111a1576000841561118f578287013590505b6111998582610ed5565b865550611201565b601f1984166111af86610d45565b60005b828110156111d7578489013582556001820191506020850194506020810190506111b2565b868310156111f457848901356111f0601f891682610eb7565b8355505b6001600288020188555050505b50505050505050565b60006112158261079d565b91507fffffffffffffffffffffffffffffffffffffffffffffffffffffffffffffffff820361124757611246610fc3565b5b60018201905091905056fea2646970667358221220136cfc22201391d42ca50e740952ec9e7eacc190fe32bd557b52964610d8889b64736f6c63430008110033",
  "linkReferences": {},
  "deployedLinkReferences": {}
}